{
  "contractName": "kyc",
  "abi": [
    {
      "inputs": [],
      "payable": false,
      "stateMutability": "nonpayable",
      "type": "constructor"
    },
    {
      "constant": false,
      "inputs": [
        {
          "internalType": "string",
          "name": "bankName",
          "type": "string"
        },
        {
          "internalType": "address",
          "name": "bankAddress",
          "type": "address"
        },
        {
          "internalType": "string",
          "name": "bankRegistrationNumber",
          "type": "string"
        }
      ],
      "name": "addBank",
      "outputs": [
        {
          "internalType": "bool",
          "name": "",
          "type": "bool"
        }
      ],
      "payable": true,
      "stateMutability": "payable",
      "type": "function"
    },
    {
      "constant": false,
      "inputs": [
        {
          "internalType": "address",
          "name": "bankAddress",
          "type": "address"
        }
      ],
      "name": "removeBank",
      "outputs": [
        {
          "internalType": "bool",
          "name": "",
          "type": "bool"
        }
      ],
      "payable": true,
      "stateMutability": "payable",
      "type": "function"
    },
    {
      "constant": false,
      "inputs": [
        {
          "internalType": "address",
          "name": "bankAddress",
          "type": "address"
        }
      ],
      "name": "disableIsAllowedToVote",
      "outputs": [],
      "payable": true,
      "stateMutability": "payable",
      "type": "function"
    },
    {
      "constant": false,
      "inputs": [
        {
          "internalType": "address",
          "name": "bankAddress",
          "type": "address"
        }
      ],
      "name": "getBankDetails",
      "outputs": [
        {
          "internalType": "string",
          "name": "name",
          "type": "string"
        },
        {
          "internalType": "address",
          "name": "ethAddress",
          "type": "address"
        },
        {
          "internalType": "uint256",
          "name": "rating",
          "type": "uint256"
        },
        {
          "internalType": "uint256",
          "name": "KYC_count",
          "type": "uint256"
        },
        {
          "internalType": "string",
          "name": "regNumber",
          "type": "string"
        }
      ],
      "payable": true,
      "stateMutability": "payable",
      "type": "function"
    },
    {
      "constant": false,
      "inputs": [
        {
          "internalType": "address",
          "name": "bankAddress",
          "type": "address"
        }
      ],
      "name": "upvotesForBank",
      "outputs": [
        {
          "internalType": "string",
          "name": "",
          "type": "string"
        }
      ],
      "payable": true,
      "stateMutability": "payable",
      "type": "function"
    },
    {
      "constant": false,
      "inputs": [
        {
          "internalType": "string",
          "name": "userName",
          "type": "string"
        },
        {
          "internalType": "string",
          "name": "dataHash",
          "type": "string"
        }
      ],
      "name": "addRequest",
      "outputs": [
        {
          "internalType": "uint256",
          "name": "",
          "type": "uint256"
        }
      ],
      "payable": true,
      "stateMutability": "payable",
      "type": "function"
    },
    {
      "constant": false,
      "inputs": [
        {
          "internalType": "string",
          "name": "userName",
          "type": "string"
        },
        {
          "internalType": "string",
          "name": "dataHash",
          "type": "string"
        }
      ],
      "name": "addCustomer",
      "outputs": [
        {
          "internalType": "uint256",
          "name": "",
          "type": "uint256"
        }
      ],
      "payable": true,
      "stateMutability": "payable",
      "type": "function"
    },
    {
      "constant": false,
      "inputs": [
        {
          "internalType": "string",
          "name": "userName",
          "type": "string"
        },
        {
          "internalType": "string",
          "name": "dataHash",
          "type": "string"
        }
      ],
      "name": "removeRequest",
      "outputs": [
        {
          "internalType": "uint256",
          "name": "",
          "type": "uint256"
        }
      ],
      "payable": true,
      "stateMutability": "payable",
      "type": "function"
    },
    {
      "constant": false,
      "inputs": [
        {
          "internalType": "string",
          "name": "userName",
          "type": "string"
        }
      ],
      "name": "removeCustomer",
      "outputs": [
        {
          "internalType": "uint256",
          "name": "",
          "type": "uint256"
        }
      ],
      "payable": true,
      "stateMutability": "payable",
      "type": "function"
    },
    {
      "constant": false,
      "inputs": [
        {
          "internalType": "string",
          "name": "userName",
          "type": "string"
        },
        {
          "internalType": "string",
          "name": "password",
          "type": "string"
        }
      ],
      "name": "viewCustomer",
      "outputs": [
        {
          "internalType": "string",
          "name": "",
          "type": "string"
        }
      ],
      "payable": true,
      "stateMutability": "payable",
      "type": "function"
    },
    {
      "constant": false,
      "inputs": [
        {
          "internalType": "address",
          "name": "bankAddress",
          "type": "address"
        }
      ],
      "name": "getBankRequests",
      "outputs": [
        {
          "internalType": "string",
          "name": "uname",
          "type": "string"
        },
        {
          "internalType": "address",
          "name": "bankAdressToView",
          "type": "address"
        },
        {
          "internalType": "string",
          "name": "dataHash",
          "type": "string"
        },
        {
          "internalType": "bool",
          "name": "isAllowed",
          "type": "bool"
        }
      ],
      "payable": true,
      "stateMutability": "payable",
      "type": "function"
    },
    {
      "constant": false,
      "inputs": [
        {
          "internalType": "address",
          "name": "bankAddress",
          "type": "address"
        }
      ],
      "name": "getBankRating",
      "outputs": [
        {
          "internalType": "uint256",
          "name": "",
          "type": "uint256"
        }
      ],
      "payable": true,
      "stateMutability": "payable",
      "type": "function"
    },
    {
      "constant": false,
      "inputs": [
        {
          "internalType": "address",
          "name": "bankAddress",
          "type": "address"
        }
      ],
      "name": "getBankComplaints",
      "outputs": [
        {
          "internalType": "uint256",
          "name": "",
          "type": "uint256"
        }
      ],
      "payable": true,
      "stateMutability": "payable",
      "type": "function"
    },
    {
      "constant": false,
      "inputs": [
        {
          "internalType": "string",
          "name": "userName",
          "type": "string"
        },
        {
          "internalType": "string",
          "name": "password",
          "type": "string"
        }
      ],
      "name": "setPasswordForCustomerData",
      "outputs": [
        {
          "internalType": "bool",
          "name": "",
          "type": "bool"
        }
      ],
      "payable": true,
      "stateMutability": "payable",
      "type": "function"
    },
    {
      "constant": false,
      "inputs": [
        {
          "internalType": "string",
          "name": "userName",
          "type": "string"
        }
      ],
      "name": "updateRatingCustomer",
      "outputs": [
        {
          "internalType": "uint256",
          "name": "",
          "type": "uint256"
        }
      ],
      "payable": true,
      "stateMutability": "payable",
      "type": "function"
    },
    {
      "constant": false,
      "inputs": [],
      "name": "showFinalCustomer",
      "outputs": [
        {
          "internalType": "string",
          "name": "",
          "type": "string"
        }
      ],
      "payable": true,
      "stateMutability": "payable",
      "type": "function"
    },
    {
      "constant": false,
      "inputs": [
        {
          "internalType": "string",
          "name": "userName",
          "type": "string"
        }
      ],
      "name": "getCustomerRating",
      "outputs": [
        {
          "internalType": "uint256",
          "name": "",
          "type": "uint256"
        }
      ],
      "payable": true,
      "stateMutability": "payable",
      "type": "function"
    },
    {
      "constant": false,
      "inputs": [
        {
          "internalType": "string",
          "name": "userName",
          "type": "string"
        },
        {
          "internalType": "string",
          "name": "password",
          "type": "string"
        },
        {
          "internalType": "string",
          "name": "newDataHash",
          "type": "string"
        }
      ],
      "name": "modifyCustomer",
      "outputs": [
        {
          "internalType": "uint256",
          "name": "",
          "type": "uint256"
        }
      ],
      "payable": true,
      "stateMutability": "payable",
      "type": "function"
    },
    {
      "constant": false,
      "inputs": [
        {
          "internalType": "string",
          "name": "userName",
          "type": "string"
        }
      ],
      "name": "retrieveAccessHistory",
      "outputs": [
        {
          "internalType": "address",
          "name": "",
          "type": "address"
        }
      ],
      "payable": true,
      "stateMutability": "payable",
      "type": "function"
    }
  ],
  "bytecode": "0x608060405234801561001057600080fd5b50336000806101000a81548173ffffffffffffffffffffffffffffffffffffffff021916908373ffffffffffffffffffffffffffffffffffffffff1602179055506140b0806100606000396000f3fe6080604052600436106101145760003560e01c80637cfc310b116100a0578063b8144a7211610064578063b8144a7214610fea578063b9da4af814611042578063c25f52fe146111a8578063ccfa8e7114611277578063fc55ea9d1461140157610114565b80637cfc310b14610b185780638eafe0f014610b5c5780639649650c14610c2b578063a0635f7e14610c87578063a18dce7b14610ded57610114565b80633168bc51116100e75780633168bc51146106b35780633190abc0146107705780635ec2a7f2146108d6578063628e09ad1461092e578063722c143614610a9557610114565b8063106ee03a1461011957806315101e02146102145780631f2c141a1461037e578063285576eb14610549575b600080fd5b6101d26004803603602081101561012f57600080fd5b810190808035906020019064010000000081111561014c57600080fd5b82018360208201111561015e57600080fd5b8035906020019184600183028401116401000000008311171561018057600080fd5b91908080601f016020809104026020016040519081016040528093929190818152602001838380828437600081840152601f19601f8201169050808301925050505050505091929192905050506114d0565b604051808273ffffffffffffffffffffffffffffffffffffffff1673ffffffffffffffffffffffffffffffffffffffff16815260200191505060405180910390f35b6102566004803603602081101561022a57600080fd5b81019080803573ffffffffffffffffffffffffffffffffffffffff16906020019092919050505061156a565b60405180806020018673ffffffffffffffffffffffffffffffffffffffff1673ffffffffffffffffffffffffffffffffffffffff16815260200185815260200184815260200180602001838103835288818151815260200191508051906020019080838360005b838110156102d85780820151818401526020810190506102bd565b50505050905090810190601f1680156103055780820380516001836020036101000a031916815260200191505b50838103825284818151815260200191508051906020019080838360005b8381101561033e578082015181840152602081019050610323565b50505050905090810190601f16801561036b5780820380516001836020036101000a031916815260200191505b5097505050505050505060405180910390f35b6104ce6004803603604081101561039457600080fd5b81019080803590602001906401000000008111156103b157600080fd5b8201836020820111156103c357600080fd5b803590602001918460018302840111640100000000831117156103e557600080fd5b91908080601f016020809104026020016040519081016040528093929190818152602001838380828437600081840152601f19601f8201169050808301925050505050505091929192908035906020019064010000000081111561044857600080fd5b82018360208201111561045a57600080fd5b8035906020019184600183028401116401000000008311171561047c57600080fd5b91908080601f016020809104026020016040519081016040528093929190818152602001838380828437600081840152601f19601f820116905080830192505050505050509192919290505050611803565b6040518080602001828103825283818151815260200191508051906020019080838360005b8381101561050e5780820151818401526020810190506104f3565b50505050905090810190601f16801561053b5780820380516001836020036101000a031916815260200191505b509250505060405180910390f35b6106996004803603604081101561055f57600080fd5b810190808035906020019064010000000081111561057c57600080fd5b82018360208201111561058e57600080fd5b803590602001918460018302840111640100000000831117156105b057600080fd5b91908080601f016020809104026020016040519081016040528093929190818152602001838380828437600081840152601f19601f8201169050808301925050505050505091929192908035906020019064010000000081111561061357600080fd5b82018360208201111561062557600080fd5b8035906020019184600183028401116401000000008311171561064757600080fd5b91908080601f016020809104026020016040519081016040528093929190818152602001838380828437600081840152601f19601f82011690508083019250505050505050919291929050505061197d565b604051808215151515815260200191505060405180910390f35b6106f5600480360360208110156106c957600080fd5b81019080803573ffffffffffffffffffffffffffffffffffffffff169060200190929190505050611a76565b6040518080602001828103825283818151815260200191508051906020019080838360005b8381101561073557808201518184015260208101905061071a565b50505050905090810190601f1680156107625780820380516001836020036101000a031916815260200191505b509250505060405180910390f35b6108c06004803603604081101561078657600080fd5b81019080803590602001906401000000008111156107a357600080fd5b8201836020820111156107b557600080fd5b803590602001918460018302840111640100000000831117156107d757600080fd5b91908080601f016020809104026020016040519081016040528093929190818152602001838380828437600081840152601f19601f8201169050808301925050505050505091929192908035906020019064010000000081111561083a57600080fd5b82018360208201111561084c57600080fd5b8035906020019184600183028401116401000000008311171561086e57600080fd5b91908080601f016020809104026020016040519081016040528093929190818152602001838380828437600081840152601f19601f820116905080830192505050505050509192919290505050611c93565b6040518082815260200191505060405180910390f35b610918600480360360208110156108ec57600080fd5b81019080803573ffffffffffffffffffffffffffffffffffffffff169060200190929190505050611f98565b6040518082815260200191505060405180910390f35b6109706004803603602081101561094457600080fd5b81019080803573ffffffffffffffffffffffffffffffffffffffff16906020019092919050505061205c565b60405180806020018573ffffffffffffffffffffffffffffffffffffffff1673ffffffffffffffffffffffffffffffffffffffff1681526020018060200184151515158152602001838103835287818151815260200191508051906020019080838360005b838110156109f05780820151818401526020810190506109d5565b50505050905090810190601f168015610a1d5780820380516001836020036101000a031916815260200191505b50838103825285818151815260200191508051906020019080838360005b83811015610a56578082015181840152602081019050610a3b565b50505050905090810190601f168015610a835780820380516001836020036101000a031916815260200191505b50965050505050505060405180910390f35b610a9d6122de565b6040518080602001828103825283818151815260200191508051906020019080838360005b83811015610add578082015181840152602081019050610ac2565b50505050905090810190601f168015610b0a5780820380516001836020036101000a031916815260200191505b509250505060405180910390f35b610b5a60048036036020811015610b2e57600080fd5b81019080803573ffffffffffffffffffffffffffffffffffffffff169060200190929190505050612435565b005b610c1560048036036020811015610b7257600080fd5b8101908080359060200190640100000000811115610b8f57600080fd5b820183602082011115610ba157600080fd5b80359060200191846001830284011164010000000083111715610bc357600080fd5b91908080601f016020809104026020016040519081016040528093929190818152602001838380828437600081840152601f19601f820116905080830192505050505050509192919290505050612557565b6040518082815260200191505060405180910390f35b610c6d60048036036020811015610c4157600080fd5b81019080803573ffffffffffffffffffffffffffffffffffffffff1690602001909291905050506125d5565b604051808215151515815260200191505060405180910390f35b610dd760048036036040811015610c9d57600080fd5b8101908080359060200190640100000000811115610cba57600080fd5b820183602082011115610ccc57600080fd5b80359060200191846001830284011164010000000083111715610cee57600080fd5b91908080601f016020809104026020016040519081016040528093929190818152602001838380828437600081840152601f19601f82011690508083019250505050505050919291929080359060200190640100000000811115610d5157600080fd5b820183602082011115610d6357600080fd5b80359060200191846001830284011164010000000083111715610d8557600080fd5b91908080601f016020809104026020016040519081016040528093929190818152602001838380828437600081840152601f19601f820116905080830192505050505050509192919290505050612851565b6040518082815260200191505060405180910390f35b610fd460048036036060811015610e0357600080fd5b8101908080359060200190640100000000811115610e2057600080fd5b820183602082011115610e3257600080fd5b80359060200191846001830284011164010000000083111715610e5457600080fd5b91908080601f016020809104026020016040519081016040528093929190818152602001838380828437600081840152601f19601f82011690508083019250505050505050919291929080359060200190640100000000811115610eb757600080fd5b820183602082011115610ec957600080fd5b80359060200191846001830284011164010000000083111715610eeb57600080fd5b91908080601f016020809104026020016040519081016040528093929190818152602001838380828437600081840152601f19601f82011690508083019250505050505050919291929080359060200190640100000000811115610f4e57600080fd5b820183602082011115610f6057600080fd5b80359060200191846001830284011164010000000083111715610f8257600080fd5b91908080601f016020809104026020016040519081016040528093929190818152602001838380828437600081840152601f19601f820116905080830192505050505050509192919290505050612aaf565b6040518082815260200191505060405180910390f35b61102c6004803603602081101561100057600080fd5b81019080803573ffffffffffffffffffffffffffffffffffffffff169060200190929190505050612e0e565b6040518082815260200191505060405180910390f35b6111926004803603604081101561105857600080fd5b810190808035906020019064010000000081111561107557600080fd5b82018360208201111561108757600080fd5b803590602001918460018302840111640100000000831117156110a957600080fd5b91908080601f016020809104026020016040519081016040528093929190818152602001838380828437600081840152601f19601f8201169050808301925050505050505091929192908035906020019064010000000081111561110c57600080fd5b82018360208201111561111e57600080fd5b8035906020019184600183028401116401000000008311171561114057600080fd5b91908080601f016020809104026020016040519081016040528093929190818152602001838380828437600081840152601f19601f820116905080830192505050505050509192919290505050612ed2565b6040518082815260200191505060405180910390f35b611261600480360360208110156111be57600080fd5b81019080803590602001906401000000008111156111db57600080fd5b8201836020820111156111ed57600080fd5b8035906020019184600183028401116401000000008311171561120f57600080fd5b91908080601f016020809104026020016040519081016040528093929190818152602001838380828437600081840152601f19601f8201169050808301925050505050505091929192905050506131d5565b6040518082815260200191505060405180910390f35b6113e76004803603606081101561128d57600080fd5b81019080803590602001906401000000008111156112aa57600080fd5b8201836020820111156112bc57600080fd5b803590602001918460018302840111640100000000831117156112de57600080fd5b91908080601f016020809104026020016040519081016040528093929190818152602001838380828437600081840152601f19601f820116905080830192505050505050509192919290803573ffffffffffffffffffffffffffffffffffffffff1690602001909291908035906020019064010000000081111561136157600080fd5b82018360208201111561137357600080fd5b8035906020019184600183028401116401000000008311171561139557600080fd5b91908080601f016020809104026020016040519081016040528093929190818152602001838380828437600081840152601f19601f8201169050808301925050505050505091929192905050506136c9565b604051808215151515815260200191505060405180910390f35b6114ba6004803603602081101561141757600080fd5b810190808035906020019064010000000081111561143457600080fd5b82018360208201111561144657600080fd5b8035906020019184600183028401116401000000008311171561146857600080fd5b91908080601f016020809104026020016040519081016040528093929190818152602001838380828437600081840152601f19601f820116905080830192505050505050509192919290505050613887565b6040518082815260200191505060405180910390f35b600080600090505b6001805490508110156115635761150c600182815481106114f557fe5b906000526020600020906007020160000184613a58565b15611558576001818154811061151e57fe5b906000526020600020906007020160050160009054906101000a900473ffffffffffffffffffffffffffffffffffffffff16915050611565565b8060010190506114d8565b505b919050565b60606000806000606060008090505b6002805490508110156117f9578673ffffffffffffffffffffffffffffffffffffffff16600282815481106115aa57fe5b906000526020600020906007020160010160009054906101000a900473ffffffffffffffffffffffffffffffffffffffff1673ffffffffffffffffffffffffffffffffffffffff1614156117ee576002818154811061160557fe5b90600052602060002090600702016000018054600181600116156101000203166002900480601f0160208091040260200160405190810160405280929190818152602001828054600181600116156101000203166002900480156116aa5780601f1061167f576101008083540402835291602001916116aa565b820191906000526020600020905b81548152906001019060200180831161168d57829003601f168201915b50505050509550600281815481106116be57fe5b906000526020600020906007020160010160009054906101000a900473ffffffffffffffffffffffffffffffffffffffff169450600281815481106116ff57fe5b90600052602060002090600702016002015493506002818154811061172057fe5b90600052602060002090600702016003015492506002818154811061174157fe5b90600052602060002090600702016006018054600181600116156101000203166002900480601f0160208091040260200160405190810160405280929190818152602001828054600181600116156101000203166002900480156117e65780601f106117bb576101008083540402835291602001916117e6565b820191906000526020600020905b8154815290600101906020018083116117c957829003601f168201915b505050505091505b806001019050611579565b5091939590929450565b606060008090505b60018054905081101561193d5761183f6001828154811061182857fe5b906000526020600020906007020160000185613a58565b801561186e575061186d6001828154811061185657fe5b906000526020600020906007020160060184613a58565b5b15611932576001818154811061188057fe5b90600052602060002090600702016001018054600181600116156101000203166002900480601f0160208091040260200160405190810160405280929190818152602001828054600181600116156101000203166002900480156119255780601f106118fa57610100808354040283529160200191611925565b820191906000526020600020905b81548152906001019060200180831161190857829003601f168201915b5050505050915050611977565b80600101905061180b565b506040518060400160405280601f81526020017f437573746f6d6572206e6f7420666f756e6420696e20746865206c697374210081525090505b92915050565b600080600090505b600180549050811015611a6a576119b9600182815481106119a257fe5b906000526020600020906007020160000185613a58565b8015611a1d5750611a1c600182815481106119d057fe5b90600052602060002090600702016006016040518060400160405280600181526020017f3000000000000000000000000000000000000000000000000000000000000000815250613a58565b5b15611a5f578260018281548110611a3057fe5b90600052602060002090600702016006019080519060200190611a54929190613b97565b506001915050611a70565b806001019050611985565b50600090505b92915050565b606060008090505b600280549050811015611c54578273ffffffffffffffffffffffffffffffffffffffff1660028281548110611aaf57fe5b906000526020600020906007020160010160009054906101000a900473ffffffffffffffffffffffffffffffffffffffff1673ffffffffffffffffffffffffffffffffffffffff161415611c495760028181548110611b0a57fe5b90600052602060002090600702016003016000815480929190600101919050555060028054905060028281548110611b3e57fe5b90600052602060002090600702016003015481611b5757fe5b0460028281548110611b6557fe5b906000526020600020906007020160020181905550606060028281548110611b8957fe5b90600052602060002090600702016002015460028381548110611ba857fe5b90600052602060002090600702016003015460028054905060405160200180848152602001807f2000000000000000000000000000000000000000000000000000000000000000815250600101838152602001807f2000000000000000000000000000000000000000000000000000000000000000815250600101828152602001935050505060405160208183030381529060405290508092505050611c8e565b806001019050611a7e565b506040518060400160405280600581526020017f6572726f7200000000000000000000000000000000000000000000000000000081525090505b919050565b600080600090505b600180549050811015611ce957611ccf60018281548110611cb857fe5b906000526020600020906007020160000185613a58565b15611cde576000915050611f92565b806001019050611c9b565b5060008090505b600380549050811015611f8c57611d2460038281548110611d0d57fe5b906000526020600020906004020160000185613a58565b8015611d9957503373ffffffffffffffffffffffffffffffffffffffff1660038281548110611d4f57fe5b906000526020600020906004020160010160009054906101000a900473ffffffffffffffffffffffffffffffffffffffff1673ffffffffffffffffffffffffffffffffffffffff16145b8015611dcd575060038181548110611dad57fe5b906000526020600020906004020160030160009054906101000a900460ff165b8015611dfc5750611dfb60038281548110611de457fe5b906000526020600020906004020160020184613a58565b5b15611f815760018054809190600101611e159190613c17565b506040518060e001604052808581526020018481526020016000815260200160008152602001600081526020013373ffffffffffffffffffffffffffffffffffffffff1681526020016040518060400160405280600181526020017f300000000000000000000000000000000000000000000000000000000000000081525081525060018080805490500381548110611eaa57fe5b90600052602060002090600702016000820151816000019080519060200190611ed4929190613c49565b506020820151816001019080519060200190611ef1929190613c49565b5060408201518160020155606082015181600301556080820151816004015560a08201518160050160006101000a81548173ffffffffffffffffffffffffffffffffffffffff021916908373ffffffffffffffffffffffffffffffffffffffff16021790555060c0820151816006019080519060200190611f73929190613c49565b509050506001915050611f92565b806001019050611cf0565b50600090505b92915050565b600080600090505b600280549050811015612051578273ffffffffffffffffffffffffffffffffffffffff1660028281548110611fd157fe5b906000526020600020906007020160010160009054906101000a900473ffffffffffffffffffffffffffffffffffffffff1673ffffffffffffffffffffffffffffffffffffffff161415612046576002818154811061202c57fe5b906000526020600020906007020160040154915050612057565b806001019050611fa0565b50600090505b919050565b606060006060600080600090505b6003805490508110156122d6578573ffffffffffffffffffffffffffffffffffffffff166003828154811061209b57fe5b906000526020600020906004020160010160009054906101000a900473ffffffffffffffffffffffffffffffffffffffff1673ffffffffffffffffffffffffffffffffffffffff1614156122cb57600381815481106120f657fe5b90600052602060002090600402016000018054600181600116156101000203166002900480601f01602080910402602001604051908101604052809291908181526020018280546001816001161561010002031660029004801561219b5780601f106121705761010080835404028352916020019161219b565b820191906000526020600020905b81548152906001019060200180831161217e57829003601f168201915b50505050509450600381815481106121af57fe5b906000526020600020906004020160010160009054906101000a900473ffffffffffffffffffffffffffffffffffffffff169350600381815481106121f057fe5b90600052602060002090600402016002018054600181600116156101000203166002900480601f0160208091040260200160405190810160405280929190818152602001828054600181600116156101000203166002900480156122955780601f1061226a57610100808354040283529160200191612295565b820191906000526020600020905b81548152906001019060200180831161227857829003601f168201915b50505050509250600381815481106122a957fe5b906000526020600020906004020160030160009054906101000a900460ff1691505b80600101905061206a565b509193509193565b60608060008090505b60048054905081101561242d576004818154811061230157fe5b90600052602060002090600702016000016004828154811061231f57fe5b9060005260206000209060070201600201546004838154811061233e57fe5b90600052602060002090600702016003015460405160200180848054600181600116156101000203166002900480156123ae5780601f1061238c5761010080835404028352918201916123ae565b820191906000526020600020905b81548152906001019060200180831161239a575b5050807f2000000000000000000000000000000000000000000000000000000000000000815250600101838152602001807f2000000000000000000000000000000000000000000000000000000000000000815250600101828152602001935050505060405160208183030381529060405291508060010190506122e7565b508091505090565b3373ffffffffffffffffffffffffffffffffffffffff166000809054906101000a900473ffffffffffffffffffffffffffffffffffffffff1673ffffffffffffffffffffffffffffffffffffffff1614156125545760008090505b600280549050811015612552578173ffffffffffffffffffffffffffffffffffffffff16600282815481106124c157fe5b906000526020600020906007020160010160009054906101000a900473ffffffffffffffffffffffffffffffffffffffff1673ffffffffffffffffffffffffffffffffffffffff1614156125475760006002828154811061251e57fe5b906000526020600020906007020160050160006101000a81548160ff0219169083151502179055505b806001019050612490565b505b50565b600080600090505b6001805490508110156125ca576125936001828154811061257c57fe5b906000526020600020906007020160000184613a58565b156125bf57600181815481106125a557fe5b9060005260206000209060070201600201549150506125d0565b80600101905061255f565b50600090505b919050565b600080600090503373ffffffffffffffffffffffffffffffffffffffff166000809054906101000a900473ffffffffffffffffffffffffffffffffffffffff1673ffffffffffffffffffffffffffffffffffffffff1614156128475760008090505b600280549050811015612845578373ffffffffffffffffffffffffffffffffffffffff166002828154811061266857fe5b906000526020600020906007020160010160009054906101000a900473ffffffffffffffffffffffffffffffffffffffff1673ffffffffffffffffffffffffffffffffffffffff16141561283a5760006001820190505b60028054905081101561281557600282815481106126d957fe5b9060005260206000209060070201600260018403815481106126f757fe5b90600052602060002090600702016000820181600001908054600181600116156101000203166002900461272c929190613cc9565b506001820160009054906101000a900473ffffffffffffffffffffffffffffffffffffffff168160010160006101000a81548173ffffffffffffffffffffffffffffffffffffffff021916908373ffffffffffffffffffffffffffffffffffffffff1602179055506002820154816002015560038201548160030155600482015481600401556005820160009054906101000a900460ff168160050160006101000a81548160ff02191690831515021790555060068201816006019080546001816001161561010002031660029004612806929190613cc9565b509050508060010190506126bf565b50600280548091906001900361282b9190613d50565b5060019150819250505061284c565b806001019050612637565b505b809150505b919050565b600080600090505b600380549050811015612aa35761288d6003828154811061287657fe5b906000526020600020906004020160000185613a58565b801561290257503373ffffffffffffffffffffffffffffffffffffffff16600382815481106128b857fe5b906000526020600020906004020160010160009054906101000a900473ffffffffffffffffffffffffffffffffffffffff1673ffffffffffffffffffffffffffffffffffffffff16145b801561293157506129306003828154811061291957fe5b906000526020600020906004020160020184613a58565b5b15612a985760006001820190505b600380549050811015612a77576003828154811061295957fe5b90600052602060002090600402016003600184038154811061297757fe5b9060005260206000209060040201600082018160000190805460018160011615610100020316600290046129ac929190613cc9565b506001820160009054906101000a900473ffffffffffffffffffffffffffffffffffffffff168160010160006101000a81548173ffffffffffffffffffffffffffffffffffffffff021916908373ffffffffffffffffffffffffffffffffffffffff16021790555060028201816002019080546001816001161561010002031660029004612a3b929190613cc9565b506003820160009054906101000a900460ff168160030160006101000a81548160ff02191690831515021790555090505080600101905061293f565b506003805480919060019003612a8d9190613d82565b506001915050612aa9565b806001019050612859565b50600090505b92915050565b600080600090505b600480549050811015612ca557612aeb60048281548110612ad457fe5b906000526020600020906007020160000186613a58565b8015612b1a5750612b1960018281548110612b0257fe5b906000526020600020906007020160060185613a58565b5b15612c9a5760006001820190505b600480549050811015612c795760048281548110612b4257fe5b906000526020600020906007020160046001840381548110612b6057fe5b906000526020600020906007020160008201816000019080546001816001161561010002031660029004612b95929190613cc9565b5060018201816001019080546001816001161561010002031660029004612bbd929190613cc9565b506002820154816002015560038201548160030155600482015481600401556005820160009054906101000a900473ffffffffffffffffffffffffffffffffffffffff168160050160006101000a81548173ffffffffffffffffffffffffffffffffffffffff021916908373ffffffffffffffffffffffffffffffffffffffff16021790555060068201816006019080546001816001161561010002031660029004612c6a929190613cc9565b50905050806001019050612b28565b506004805480919060019003612c8f9190613db4565b506001915050612e07565b806001019050612ab7565b5060008090505b600180549050811015612e0157612ce060018281548110612cc957fe5b906000526020600020906007020160000186613a58565b8015612d0f5750612d0e60018281548110612cf757fe5b906000526020600020906007020160060185613a58565b5b15612df6578260018281548110612d2257fe5b90600052602060002090600702016001019080519060200190612d46929190613b97565b503360018281548110612d5557fe5b906000526020600020906007020160050160006101000a81548173ffffffffffffffffffffffffffffffffffffffff021916908373ffffffffffffffffffffffffffffffffffffffff160217905550600060018281548110612db357fe5b906000526020600020906007020160030181905550600060018281548110612dd757fe5b9060005260206000209060070201600201819055506001915050612e07565b806001019050612cac565b50600190505b9392505050565b600080600090505b600280549050811015612ec7578273ffffffffffffffffffffffffffffffffffffffff1660028281548110612e4757fe5b906000526020600020906007020160010160009054906101000a900473ffffffffffffffffffffffffffffffffffffffff1673ffffffffffffffffffffffffffffffffffffffff161415612ebc5760028181548110612ea257fe5b906000526020600020906007020160020154915050612ecd565b806001019050612e16565b50600090505b919050565b600080600090505b6002805490508110156131c9573373ffffffffffffffffffffffffffffffffffffffff1660028281548110612f0b57fe5b906000526020600020906007020160010160009054906101000a900473ffffffffffffffffffffffffffffffffffffffff1673ffffffffffffffffffffffffffffffffffffffff1614156131be576005600a60028381548110612f6a57fe5b906000526020600020906007020160020154021061309d5760038054809190600101612f969190613d82565b5060405180608001604052808581526020013373ffffffffffffffffffffffffffffffffffffffff16815260200184815260200160011515815250600360016003805490500381548110612fe657fe5b90600052602060002090600402016000820151816000019080519060200190613010929190613c49565b5060208201518160010160006101000a81548173ffffffffffffffffffffffffffffffffffffffff021916908373ffffffffffffffffffffffffffffffffffffffff1602179055506040820151816002019080519060200190613074929190613c49565b5060608201518160030160006101000a81548160ff0219169083151502179055509050506131b4565b600380548091906001016130b19190613d82565b5060405180608001604052808581526020013373ffffffffffffffffffffffffffffffffffffffff1681526020018481526020016000151581525060036001600380549050038154811061310157fe5b9060005260206000209060040201600082015181600001908051906020019061312b929190613c49565b5060208201518160010160006101000a81548173ffffffffffffffffffffffffffffffffffffffff021916908373ffffffffffffffffffffffffffffffffffffffff160217905550604082015181600201908051906020019061318f929190613c49565b5060608201518160030160006101000a81548160ff0219169083151502179055509050505b60019150506131cf565b806001019050612eda565b50600090505b92915050565b600080600280549050905060008090505b6001805490508110156136bd5761321a6001828154811061320357fe5b906000526020600020906007020160000185613a58565b156136b2576001818154811061322c57fe5b906000526020600020906007020160030160008154809291906001019190505550816001828154811061325b57fe5b9060005260206000209060070201600301548161327457fe5b046001828154811061328257fe5b9060005260206000209060070201600201600082825401925050819055506005600a600183815481106132b157fe5b90600052602060002090600702016002015402106136a757600480548091906001016132dd9190613db4565b506040518060e00160405280600183815481106132f657fe5b90600052602060002090600702016000018054600181600116156101000203166002900480601f01602080910402602001604051908101604052809291908181526020018280546001816001161561010002031660029004801561339b5780601f106133705761010080835404028352916020019161339b565b820191906000526020600020905b81548152906001019060200180831161337e57829003601f168201915b50505050508152602001600183815481106133b257fe5b90600052602060002090600702016001018054600181600116156101000203166002900480601f0160208091040260200160405190810160405280929190818152602001828054600181600116156101000203166002900480156134575780601f1061342c57610100808354040283529160200191613457565b820191906000526020600020905b81548152906001019060200180831161343a57829003601f168201915b505050505081526020016001838154811061346e57fe5b90600052602060002090600702016002015481526020016001838154811061349257fe5b906000526020600020906007020160030154815260200160008152602001600183815481106134bd57fe5b906000526020600020906007020160050160009054906101000a900473ffffffffffffffffffffffffffffffffffffffff1673ffffffffffffffffffffffffffffffffffffffff1681526020016001838154811061351757fe5b90600052602060002090600702016006018054600181600116156101000203166002900480601f0160208091040260200160405190810160405280929190818152602001828054600181600116156101000203166002900480156135bc5780601f10613591576101008083540402835291602001916135bc565b820191906000526020600020905b81548152906001019060200180831161359f57829003601f168201915b50505050508152506004600160048054905003815481106135d957fe5b90600052602060002090600702016000820151816000019080519060200190613603929190613c49565b506020820151816001019080519060200190613620929190613c49565b5060408201518160020155606082015181600301556080820151816004015560a08201518160050160006101000a81548173ffffffffffffffffffffffffffffffffffffffff021916908373ffffffffffffffffffffffffffffffffffffffff16021790555060c08201518160060190805190602001906136a2929190613c49565b509050505b6001925050506136c4565b8060010190506131e6565b5060009150505b919050565b600080600090503373ffffffffffffffffffffffffffffffffffffffff166000809054906101000a900473ffffffffffffffffffffffffffffffffffffffff1673ffffffffffffffffffffffffffffffffffffffff16141561387b57600280548091906001016137399190613d50565b506040518060e001604052808681526020018573ffffffffffffffffffffffffffffffffffffffff1681526020016000815260200160008152602001600081526020016000151581526020018481525060026001600280549050038154811061379e57fe5b906000526020600020906007020160008201518160000190805190602001906137c8929190613c49565b5060208201518160010160006101000a81548173ffffffffffffffffffffffffffffffffffffffff021916908373ffffffffffffffffffffffffffffffffffffffff16021790555060408201518160020155606082015181600301556080820151816004015560a08201518160050160006101000a81548160ff02191690831515021790555060c082015181600601908051906020019061386a929190613c49565b509050506001905080915050613880565b809150505b9392505050565b600080600090505b600180549050811015613a4d576138c3600182815481106138ac57fe5b906000526020600020906007020160000184613a58565b15613a425760006001820190505b600180549050811015613a2157600182815481106138eb57fe5b906000526020600020906007020160018084038154811061390857fe5b90600052602060002090600702016000820181600001908054600181600116156101000203166002900461393d929190613cc9565b5060018201816001019080546001816001161561010002031660029004613965929190613cc9565b506002820154816002015560038201548160030155600482015481600401556005820160009054906101000a900473ffffffffffffffffffffffffffffffffffffffff168160050160006101000a81548173ffffffffffffffffffffffffffffffffffffffff021916908373ffffffffffffffffffffffffffffffffffffffff16021790555060068201816006019080546001816001161561010002031660029004613a12929190613cc9565b509050508060010190506138d1565b506001805480919060019003613a379190613c17565b506001915050613a53565b80600101905061388f565b50600090505b919050565b600080839050606083905080518280546001816001161561010002031660029004905014613a8b57600092505050613b91565b60008090505b82805460018160011615610100020316600290049050811015613b8957818181518110613aba57fe5b602001015160f81c60f81b7effffffffffffffffffffffffffffffffffffffffffffffffffffffffffffff19168382815460018160011615610100020316600290048110613b0457fe5b815460011615613b235790600052602060002090602091828204019190065b9054901a7f0100000000000000000000000000000000000000000000000000000000000000027effffffffffffffffffffffffffffffffffffffffffffffffffffffffffffff191614613b7c5760009350505050613b91565b8080600101915050613a91565b506001925050505b92915050565b828054600181600116156101000203166002900490600052602060002090601f016020900481019282601f10613bd857805160ff1916838001178555613c06565b82800160010185558215613c06579182015b82811115613c05578251825591602001919060010190613bea565b5b509050613c139190613de6565b5090565b815481835581811115613c4457600702816007028360005260206000209182019101613c439190613e0b565b5b505050565b828054600181600116156101000203166002900490600052602060002090601f016020900481019282601f10613c8a57805160ff1916838001178555613cb8565b82800160010185558215613cb8579182015b82811115613cb7578251825591602001919060010190613c9c565b5b509050613cc59190613de6565b5090565b828054600181600116156101000203166002900490600052602060002090601f016020900481019282601f10613d025780548555613d3f565b82800160010185558215613d3f57600052602060002091601f016020900482015b82811115613d3e578254825591600101919060010190613d23565b5b509050613d4c9190613de6565b5090565b815481835581811115613d7d57600702816007028360005260206000209182019101613d7c9190613e99565b5b505050565b815481835581811115613daf57600402816004028360005260206000209182019101613dae9190613f2b565b5b505050565b815481835581811115613de157600702816007028360005260206000209182019101613de09190613fa5565b5b505050565b613e0891905b80821115613e04576000816000905550600101613dec565b5090565b90565b613e9691905b80821115613e925760008082016000613e2a9190614033565b600182016000613e3a9190614033565b6002820160009055600382016000905560048201600090556005820160006101000a81549073ffffffffffffffffffffffffffffffffffffffff0219169055600682016000613e899190614033565b50600701613e11565b5090565b90565b613f2891905b80821115613f245760008082016000613eb89190614033565b6001820160006101000a81549073ffffffffffffffffffffffffffffffffffffffff02191690556002820160009055600382016000905560048201600090556005820160006101000a81549060ff0219169055600682016000613f1b9190614033565b50600701613e9f565b5090565b90565b613fa291905b80821115613f9e5760008082016000613f4a9190614033565b6001820160006101000a81549073ffffffffffffffffffffffffffffffffffffffff0219169055600282016000613f819190614033565b6003820160006101000a81549060ff021916905550600401613f31565b5090565b90565b61403091905b8082111561402c5760008082016000613fc49190614033565b600182016000613fd49190614033565b6002820160009055600382016000905560048201600090556005820160006101000a81549073ffffffffffffffffffffffffffffffffffffffff02191690556006820160006140239190614033565b50600701613fab565b5090565b90565b50805460018160011615610100020316600290046000825580601f106140595750614078565b601f0160209004906000526020600020908101906140779190613de6565b5b5056fea265627a7a7231582076f34545b6fff6d89eb0cfed63cc9500934a18cef7e3334f7963473d304713b064736f6c63430005100032",
  "source": "pragma solidity ^0.5.0;\n\ncontract kyc {\n    \n    // admin variable \n    address admin;\n    \n    //  Struct data type of customer\n    //  uname - username \n    //  dataHash - customer data hash\n    //  rating - rating given to customer given based on regularity. This is also kyc Status.\n    //  upvotes - number of upvotes recieved from banks\n    //  downvotes - number of down votes recieved from banks\n    //  bank - address of bank that validated the customer account\n    \n\n    struct Customer {\n        string uname;\n        string dataHash;\n        uint rating;\n        uint upvotes;\n        uint downvotes;\n        address bank;\n        string password;\n    }\n\n    //  Struct Bank/Organisation\n    //  name - name of the bank/organisation\n    //  ethAddress - ethereum address of the bank/organisation\n    //  rating - rating based on number of valid/invalid verified accounts\n    //  KYC_count - number of KYCs verified by the bank/organisation\n    //  complaintsReported - number of complaints raised for this bank \n    //  isAllowedToVote - whether this bank is allowed to vote or not\n    //  regNumber - Bank registration number\n    struct Bank {\n        string name;\n        address ethAddress;\n        uint rating;\n        uint KYC_count;\n        uint complaintsReported;\n        bool isAllowedToVote;\n        string regNumber;\n    }\n    \n    // Struct KYC_Request\n    // uname - Username will be used to map the KYC request with the customer data. \n    // bankAddress - Bank address here is a unique account address for the bank, which can be used to track the bank.\n    // dataHash - hash of the data or identification documents provided by the Customer.\n    // isAllowed - request is added by a trusted bank or not.\n    // Bank is not secure, then the IsAllowed is set to false for all the bank requests done by the bank.\n    struct KYC_Request {\n        string uname;\n        address bankAddress;\n        string dataHash;\n        bool isAllowed;\n    }\n    \n    //  Struct finalCustomer  is created to identify trusted customers.\n    //  uname - username of the customer\n    //  dataHash - customer data\n    //  rating - rating given to customer given based on regularity\n    //  upvotes - number of upvotes recieved from banks\n    //  bank - address of bank that validated the customer account\n    struct FinalCustomer {\n        string uname;\n        string dataHash;\n        uint rating;\n        uint upvotes;\n        uint downvotes;\n        address bank;\n        string password;\n    }\n    \n    //  List of all customers\n    Customer[] allCustomers;\n\n    //  List of all Banks/Organisations\n    Bank[] allBanks;\n\n    \n    // List of all KYC_Request\n    KYC_Request[] allRequests;\n    \n    // List of all finalCustomers\n    FinalCustomer[] allFinalCustomers;\n    \n    \n    // Constructor for setting the admin as the person who deploys the smart contract onto the network.\n    constructor() public {\n        admin = msg.sender;\n    }\n    \n    //ADMIN INTERFACE to add and remove a bank\n    \n    //Function is used by the admin to add a bank to the KYC Contract.\n    //@param bankName - Name of the bank\n    //@param bankAddress - Address of the bank\n    //@param bankRegistrationNumber - Bank registration number\n    //@returns isAddedToBankListFlag - whether bank is added to the allBanks or not.\n    function addBank(string memory bankName, address bankAddress, string memory bankRegistrationNumber) public payable returns(bool) {\n        bool isAddedToBankListFlag = false;\n        \n        //verify if the user trying to call this function is admin or not.\n        if(admin==msg.sender) {\n            allBanks.length ++;\n            //Initialise rating=0 and KYC_count=0\n            allBanks[allBanks.length - 1] = Bank(bankName, bankAddress, 0, 0, 0,false,bankRegistrationNumber);\n            isAddedToBankListFlag = true;\n            return isAddedToBankListFlag;\n        }\n    \n        return isAddedToBankListFlag;\n    }\n    \n    // Function is used by the admin to remove a bank from the KYC Contract. \n    // You need to verify if the user trying to call this function is admin or not.\n    // @param bankAddress - address of the bank\n    // @returns bool - flag stating the successful removal of the bank from the contract.\n    function removeBank(address bankAddress) public payable returns(bool) {\n        bool isRemovedFromBankListFlag = false;\n        \n        if(admin==msg.sender) {\n            for(uint i = 0; i < allBanks.length; ++ i) {\n                if(allBanks[i].ethAddress == bankAddress) {\n                    for(uint j = i+1;j < allBanks.length; ++ j) {\n                        allBanks[i-1] = allBanks[i];\n                    }\n                    allBanks.length --;\n                    isRemovedFromBankListFlag = true;\n                    return isRemovedFromBankListFlag;\n                }\n            }\n        }\n        return isRemovedFromBankListFlag;\n    }\n\n    // Function is used by the admin to turn off isAllowedToVote\n    // You need to verify if the user trying to call this function is admin or not.\n    // @param bankAddress - address of the bank\n    \n    function disableIsAllowedToVote(address bankAddress) public payable {\n        \n        \n        if(admin==msg.sender) {\n            for(uint i = 0; i < allBanks.length; ++ i) {\n                if(allBanks[i].ethAddress == bankAddress) {\n                    allBanks[i].isAllowedToVote=false;\n                }\n            }\n        }\n       \n    }\n    \n    // Function is used to fetch the bank details.\n    // @param bankAddress-Bank address\n    // @returns Bank details of type Bank\n    function getBankDetails(address bankAddress) public payable returns( string memory name,\n        address ethAddress,\n        uint rating,\n        uint KYC_count,\n        string memory regNumber) {\n        for(uint i = 0; i < allBanks.length; ++ i) {\n            if(allBanks[i].ethAddress == bankAddress) {\n                name = allBanks[i].name;\n                ethAddress = allBanks[i].ethAddress;\n                rating = allBanks[i].rating;\n                KYC_count = allBanks[i].KYC_count;\n                regNumber = allBanks[i].regNumber;\n            }\n        }\n    }\n    \n    //BANK INTERFACE\n    \n    // Function upvotes to provide ratings on other Banks.\n    // Add and update votes for the banks.\n    // Also need to update the rating for the bank in this function.\n    // @param bankAddress - address of the bank who is getting upvoted\n    // @returns uint\n    function upvotesForBank(address bankAddress) public payable returns(string memory) {\n        for(uint i = 0; i < allBanks.length; ++ i) {\n            if(allBanks[i].ethAddress == bankAddress) {\n                    // Increase the KYC_count for bankAddress\n                    allBanks[i].KYC_count ++;\n                    // Rating for a Bank\n                    allBanks[i].rating = (allBanks[i].KYC_count)/allBanks.length;\n                    //0 if the rating is successfully updated\n                    string memory s = string(abi.encodePacked(allBanks[i].rating, \" \", allBanks[i].KYC_count, \" \", allBanks.length));\n                    return s;\n            }\n        }\n        // error-bank not found \n        return \"error\";\n    }\n    \n    // Function is used to add the KYC request to the KYC_Request requests list.\n    // If the bank rating is less than or equal to 0.5 then assign IsAllowed to false. \n    // Else assign IsAllowed to true. \n    // @param userName - customer name as string\n    // @param dataHash - customer data as string\n    // @return value 1 to determine the status of success, value 0 for the failure of the function.\n    function addRequest(string memory userName, string memory dataHash) public payable returns(uint){\n        //bool isAllowedValue;\n        for(uint i = 0; i < allBanks.length; ++ i) {\n                //If the bank rating is less than or equal to 0.5 then assign IsAllowed to false. \n                //Else assign IsAllowed to true. \n            if((allBanks[i].ethAddress == msg.sender)) {\n                // Check the rating of the bank\n                if(allBanks[i].rating*10 >= 0.5*10){\n                    allRequests.length ++;\n                    allRequests[allRequests.length - 1] = KYC_Request(userName, msg.sender, dataHash,true);\n                }else{\n                    allRequests.length ++;\n                    allRequests[allRequests.length - 1] = KYC_Request(userName, msg.sender, dataHash,false);\n                }\n                //return \"1\"-Success\n                return 1;\n            }\n        }\n        //return \"0\" - Failure of the function\n        return 0;\n    }\n    \n    // Function will add a customer to the customer list. \n    // If IsAllowed is false then don't process the request. \n    // @param userName - customer name as the string\n    // @param dataHash - customer data as string\n    // @return value 1 to determine the status of success\n    // @return value 0 for the failure of the function.\n    function addCustomer(string memory userName, string memory dataHash) public payable returns(uint) {\n        //  throw error if username already in use\n        for(uint i = 0;i < allCustomers.length; ++ i) {\n            if(stringsEquals(allCustomers[i].uname, userName))\n                // Failure of the function as user already exists\n                return 0;\n        }\n        \n        // If IsAllowed is false then dont process the request.\n        for(uint i = 0; i < allRequests.length; ++i) {\n            if(stringsEquals(allRequests[i].uname, userName) && allRequests[i].bankAddress == msg.sender && allRequests[i].isAllowed && stringsEquals(allRequests[i].dataHash,dataHash)) {\n                allCustomers.length ++;\n                // set rating = 0, upvotes = 0, bank = current node, password = 0\n                allCustomers[allCustomers.length-1] = Customer(userName, dataHash, 0, 0, 0,msg.sender, \"0\");\n                return 1;\n            }\n        }\n        // If request doesnot exists in the KYC_Request list.\n        return 0;\n    }\n    \n    // Function will remove the request from the requests list.\n    // @param userName - customer name as string\n    // @param dataHash - customer data as string\n    // @return value 1 to determine the status of success \n    //         value 0 for the failure of the function.\n    function removeRequest(string memory userName, string memory dataHash) public payable returns(uint){\n         for(uint i = 0; i < allRequests.length; ++ i) {\n            if(stringsEquals(allRequests[i].uname, userName) && allRequests[i].bankAddress == msg.sender && stringsEquals(allRequests[i].dataHash,dataHash)) {\n                //Remove the request from the requestlist and send status as \"1\"\n                    for(uint j = i+1;j < allRequests.length; ++ j) {\n                        allRequests[i-1] = allRequests[i];\n                    }\n                    allRequests.length --;\n                    return 1;\n            }\n        }\n        return 0;\n    }\n    \n    // Function will remove the customer from the customer list.\n    // @param userName - customerName\n    // @return value 1 to determine the status of success\n    //         value 0 for the failure of the function\n    function removeCustomer(string memory userName) public payable returns(uint) {\n        for(uint i = 0; i < allCustomers.length; ++ i) {\n            if(stringsEquals(allCustomers[i].uname, userName)) {\n                for(uint j = i+1;j < allCustomers.length; ++ j) {\n                    allCustomers[i-1] = allCustomers[i];\n                }\n                allCustomers.length --;\n                return 1;\n            }\n        }\n        //  throw error if userName not found\n        return 0;\n    }\n    \n    // Function allows a bank to view details of a customer.\n    // @param userName - customer name as string.\n    // @param password - password for the user.\n    // If the password is not set for the customer, then the incoming password string should be equal to \"0\".\n    // @return dataHash - hash of the customer data in form of a string\n    function viewCustomer(string memory userName,string memory password) public payable returns(string memory) {\n        for(uint i = 0; i < allCustomers.length; ++ i) {\n            if(stringsEquals(allCustomers[i].uname, userName) && stringsEquals(allCustomers[i].password, password)) {\n                return allCustomers[i].dataHash;\n            }\n        }\n        return \"Customer not found in the list!\";\n    }\n    \n    // Function fetches the KYC requests for a specific bank.\n    // @param bankAddress - Unique bank address as address is provided to fetch the bank kyc requests.\n    // @returns\n    // List of all the requests initiated by the bank which are yet to be validated.\n    function getBankRequests(address bankAddress) public payable returns(\n        string memory uname,\n        address bankAdressToView,\n        string memory dataHash,\n        bool isAllowed\n        ) {\n        for(uint i=0;i<allRequests.length;++i) {\n            if(allRequests[i].bankAddress == bankAddress) {\n                uname = allRequests[i].uname;\n                bankAdressToView = allRequests[i].bankAddress;\n                dataHash = allRequests[i].dataHash;\n                isAllowed = allRequests[i].isAllowed;\n            }\n        }\n    }\n    \n    // Function is used to fetch bank rating from the smart contract.\n    // @param bankAddress is passed as address to fetch bank ratings.\n    // @returns ratings as unsigned integer.\n    function getBankRating(address bankAddress) public payable returns(uint) {\n        for(uint i = 0; i < allBanks.length; ++ i) {\n            if(allBanks[i].ethAddress == bankAddress) {\n                return allBanks[i].rating;\n            }\n        }\n        return 0;\n    }\n\n    // Function is used to fetch bank complains.\n    // @param bankAddress is passed as address to fetch bank ratings.\n    // @returns ratings as unsigned integer.\n    function getBankComplaints(address bankAddress) public payable returns(uint) {\n        for(uint i = 0; i < allBanks.length; ++ i) {\n            if(allBanks[i].ethAddress == bankAddress) {\n                return allBanks[i].complaintsReported;\n            }\n        }\n        return 0;\n    }\n    \n    // Function is used to set a password for customer data, which can be later be unlocked by using the password.\n    // @param userName - Username as string\n    // @param password - Password as string\n    // returns bool - A boolean result is returned which determines if the password for the customer has been successfully updated.\n    function setPasswordForCustomerData(string memory userName, string memory password) public payable returns(bool) {\n        for(uint i=0;i < allCustomers.length; ++ i) {\n            if(stringsEquals(allCustomers[i].uname, userName) && stringsEquals(allCustomers[i].password, \"0\")) {\n                allCustomers[i].password = password;\n                return true;\n            }\n        }\n        return false;\n    }\n    \n    // Function allows a bank to cast an upvote for a customer. \n    // This vote from a bank means that it accepts the customer details as well acknowledge the KYC process done by some bank on the customer.\n    // You also need to update the rating for a customer in this function.\n    // The rating is calculated as the number of upvotes for the customer/total number of banks. \n    // If rating is more than 0.5, then you can add the customer to the final_customer list.\n    // @param userName as customer name\n    // @return 1 to determine the status of success\n    //   value 0 for the failure of the function.\n    function updateRatingCustomer(string memory userName) public payable returns(uint) {\n        //Total number of banks\n        uint totalNumberOfBanks = allBanks.length;\n        for(uint i = 0; i < allCustomers.length; ++ i) {\n            if(stringsEquals(allCustomers[i].uname, userName)) {\n                    allCustomers[i].upvotes ++;\n                    allCustomers[i].rating += (allCustomers[i].upvotes/totalNumberOfBanks);\n                    if(allCustomers[i].rating*10 >= 0.5*10){\n                        allFinalCustomers.length++;\n                        allFinalCustomers[allFinalCustomers.length-1]=FinalCustomer(allCustomers[i].uname,allCustomers[i].dataHash,allCustomers[i].rating,allCustomers[i].upvotes,0,allCustomers[i].bank,allCustomers[i].password);\n                    }\n                return 1;\n            }\n        }\n        //  throw error if bank not found\n        return 0;\n    }\n    \n    // Function is used to fetch the details of FinalCustomer\n    // @param userName - Customer name\n    // @return address - bank address\n    function showFinalCustomer() public payable returns(string memory){\n        string memory finalCustomerList;\n        for(uint i = 0; i < allFinalCustomers.length; ++ i) {\n                finalCustomerList = string(abi.encodePacked(allFinalCustomers[i].uname, \" \", allFinalCustomers[i].rating, \" \", allFinalCustomers[i].upvotes));\n        }\n        return finalCustomerList;\n    }\n    \n    // Function is used to fetch customer rating from the smart contract.\n    // @param userName as customer name\n    // @returns rating as unsigned integer\n    function getCustomerRating(string memory userName) public payable returns(uint) {\n        for(uint i = 0; i < allCustomers.length; ++ i) {\n            if(stringsEquals(allCustomers[i].uname, userName)) {\n                return allCustomers[i].rating;\n            }\n        }\n        return 0;\n    }\n    \n    \n    // Function allows a bank to modify a customer's data.\n    // Only applicable for the customers whose request have been validated and present in the customer list.\n    // If the user is present in the final customer list then remove it from the final list.\n    // Change the upvotes and rating component of the customer in customer list to \"0\".\n    // Remove all the previous upvotes for the customer. Hence, banks need to again upvote on the customer to acknowledge the modified data. \n    // @param username as Customer username\n    // @param password - password of the user, if no password is set then \"0\"\n    // @param newDataHash - new customer data\n    // @returns value 1 to determine the status of success \n    //          value 0 for the failure of the function.\n    function modifyCustomer(string memory userName,string memory password, string memory newDataHash) public payable returns(uint) {\n        \n        // If the user is present in the final customer list then remove it from the final list.\n        for(uint i = 0; i < allFinalCustomers.length; ++ i) {\n            if(stringsEquals(allFinalCustomers[i].uname, userName) && stringsEquals(allCustomers[i].password, password)) {\n                for(uint j = i+1;j < allFinalCustomers.length; ++ j) {\n                    allFinalCustomers[i-1] = allFinalCustomers[i];\n                }\n                allFinalCustomers.length --;\n                return 1;\n            }\n        }\n        \n        // Change the upvotes and rating component of the customer in customer list to \"0\".\n        for(uint i = 0; i < allCustomers.length; ++ i) {\n            if(stringsEquals(allCustomers[i].uname, userName) && stringsEquals(allCustomers[i].password, password)) {\n                allCustomers[i].dataHash = newDataHash;\n                allCustomers[i].bank = msg.sender;\n                allCustomers[i].upvotes = 0;\n                allCustomers[i].rating = 0;\n                return 1;\n            }\n        }\n        //  value 0 for the failure of the function.\n        return 1;\n    }\n    \n    // Function is used to fetch the bank details which made the last changes to the customer data.\n    // @param userName - Customer name\n    // @return address - bank address\n    function retrieveAccessHistory(string memory userName) public payable returns(address){\n        for(uint i = 0; i < allCustomers.length; ++ i) {\n            if(stringsEquals(allCustomers[i].uname, userName)){\n                return allCustomers[i].bank;\n            }\n        }\n    }\n    \n    // Utility Function to check the equality of two string variables\n    function stringsEquals(string storage _a, string memory _b) internal view returns (bool) {\n        bytes storage a = bytes(_a);\n        bytes memory b = bytes(_b); \n        if (a.length != b.length)\n            return false;\n        for (uint i = 0; i < a.length; i ++)\n        {\n            if (a[i] != b[i])\n                return false;\n        }\n        return true;\n    }\n}",
  "sourcePath": "/Users/duttak/etherium/kyc/Phase-3/kyc-truffle-project/contracts/KYC.sol",
  "compiler": {
    "name": "solc",
    "version": "0.5.16+commit.9c3226ce.Emscripten.clang"
  },
  "schemaVersion": "3.4.3",
  "updatedAt": "2021-09-26T01:01:32.672Z",
  "devdoc": {
    "methods": {}
  },
  "userdoc": {
    "methods": {}
  }
}